{
  "contractName": "DocumentVerification",
  "abi": [
    {
      "inputs": [],
      "stateMutability": "nonpayable",
      "type": "constructor"
    },
    {
      "anonymous": false,
      "inputs": [
        {
          "indexed": false,
          "internalType": "address",
          "name": "sender",
          "type": "address"
        }
      ],
      "name": "ConstructorCalled",
      "type": "event"
    },
    {
      "inputs": [],
      "name": "owner",
      "outputs": [
        {
          "internalType": "address",
          "name": "",
          "type": "address"
        }
      ],
      "stateMutability": "view",
      "type": "function"
    },
    {
      "inputs": [],
      "name": "getOwner",
      "outputs": [
        {
          "internalType": "address",
          "name": "",
          "type": "address"
        }
      ],
      "stateMutability": "view",
      "type": "function"
    }
  ],
  "bytecode": "0x608060405234801561000f575f80fd5b506040513381527fbad9c536aeab214bd62c78cc39018cff9fe81815d763bd829e24a3b171af6a839060200160405180910390a15f80546001600160a01b0319163317905560a3806100605f395ff3fe6080604052348015600e575f80fd5b50600436106030575f3560e01c8063893d20e81460345780638da5cb5b14605c575b5f80fd5b5f546001600160a01b03165b6040516001600160a01b03909116815260200160405180910390f35b5f546040906001600160a01b03168156fea26469706673582212204a5a8a9ec2718fc5a634d16504d022de98e354a04de5a0664ab43c0946ea089564736f6c63430008150033",
  "immutableReferences": {},
  "source": "// SPDX-License-Identifier: MIT\npragma solidity 0.8.21;\n\ncontract DocumentVerification {\n    address public owner;\n\n    event ConstructorCalled(address sender);\n\n    constructor() {\n        emit ConstructorCalled(msg.sender);\n        owner = msg.sender;\n    }\n\n    function getOwner() public view returns (address) {\n        return owner;\n    }\n}\n",
  "sourcePath": "E:\\BLOCDOC SECURE\\backend\\contracts\\DocumentVerification.sol",
  "compiler": {
    "name": "solc",
    "version": "0.8.21+commit.d9974bed.Emscripten.clang"
  },
  "schemaVersion": "3.4.16",
  "updatedAt": "2024-10-17T17:13:31.536Z",
  "devdoc": {
    "kind": "dev",
    "methods": {},
    "version": 1
  },
  "userdoc": {
    "kind": "user",
    "methods": {},
    "version": 1
  }
}